{
  "_format": "hh-sol-artifact-1",
  "contractName": "Moonbag",
  "sourceName": "contracts/Moonbag.sol",
  "abi": [
    {
      "inputs": [],
      "stateMutability": "nonpayable",
      "type": "constructor"
    },
    {
      "inputs": [
        {
          "internalType": "address",
          "name": "owner",
          "type": "address"
        }
      ],
      "name": "OwnableInvalidOwner",
      "type": "error"
    },
    {
      "inputs": [
        {
          "internalType": "address",
          "name": "account",
          "type": "address"
        }
      ],
      "name": "OwnableUnauthorizedAccount",
      "type": "error"
    },
    {
      "anonymous": false,
      "inputs": [
        {
          "indexed": true,
          "internalType": "address",
          "name": "user",
          "type": "address"
        },
        {
          "indexed": false,
          "internalType": "uint256",
          "name": "amount",
          "type": "uint256"
        },
        {
          "indexed": false,
          "internalType": "uint256",
          "name": "unlockTime",
          "type": "uint256"
        }
      ],
      "name": "Locked",
      "type": "event"
    },
    {
      "anonymous": false,
      "inputs": [
        {
          "indexed": true,
          "internalType": "address",
          "name": "previousOwner",
          "type": "address"
        },
        {
          "indexed": true,
          "internalType": "address",
          "name": "newOwner",
          "type": "address"
        }
      ],
      "name": "OwnershipTransferred",
      "type": "event"
    },
    {
      "anonymous": false,
      "inputs": [
        {
          "indexed": true,
          "internalType": "address",
          "name": "user",
          "type": "address"
        },
        {
          "indexed": false,
          "internalType": "uint256",
          "name": "amount",
          "type": "uint256"
        }
      ],
      "name": "Withdrawn",
      "type": "event"
    },
    {
      "inputs": [],
      "name": "lock",
      "outputs": [],
      "stateMutability": "payable",
      "type": "function"
    },
    {
      "inputs": [],
      "name": "lockDuration",
      "outputs": [
        {
          "internalType": "uint256",
          "name": "",
          "type": "uint256"
        }
      ],
      "stateMutability": "view",
      "type": "function"
    },
    {
      "inputs": [
        {
          "internalType": "address",
          "name": "",
          "type": "address"
        }
      ],
      "name": "lockedFunds",
      "outputs": [
        {
          "internalType": "uint256",
          "name": "amount",
          "type": "uint256"
        },
        {
          "internalType": "uint256",
          "name": "unlockTime",
          "type": "uint256"
        }
      ],
      "stateMutability": "view",
      "type": "function"
    },
    {
      "inputs": [],
      "name": "owner",
      "outputs": [
        {
          "internalType": "address",
          "name": "",
          "type": "address"
        }
      ],
      "stateMutability": "view",
      "type": "function"
    },
    {
      "inputs": [],
      "name": "renounceOwnership",
      "outputs": [],
      "stateMutability": "nonpayable",
      "type": "function"
    },
    {
      "inputs": [
        {
          "internalType": "uint256",
          "name": "_duration",
          "type": "uint256"
        }
      ],
      "name": "setLockDuration",
      "outputs": [],
      "stateMutability": "nonpayable",
      "type": "function"
    },
    {
      "inputs": [
        {
          "internalType": "address",
          "name": "newOwner",
          "type": "address"
        }
      ],
      "name": "transferOwnership",
      "outputs": [],
      "stateMutability": "nonpayable",
      "type": "function"
    },
    {
      "inputs": [],
      "name": "withdraw",
      "outputs": [],
      "stateMutability": "nonpayable",
      "type": "function"
    }
  ],
  "bytecode": "0x608060405262278d0060025534801561001757600080fd5b5033600073ffffffffffffffffffffffffffffffffffffffff168173ffffffffffffffffffffffffffffffffffffffff160361008b5760006040517f1e4fbdf700000000000000000000000000000000000000000000000000000000815260040161008291906101a5565b60405180910390fd5b61009a816100a060201b60201c565b506101c0565b60008060009054906101000a900473ffffffffffffffffffffffffffffffffffffffff169050816000806101000a81548173ffffffffffffffffffffffffffffffffffffffff021916908373ffffffffffffffffffffffffffffffffffffffff1602179055508173ffffffffffffffffffffffffffffffffffffffff168173ffffffffffffffffffffffffffffffffffffffff167f8be0079c531659141344cd1fd0a4f28419497f9722a3daafe3b4186f6b6457e060405160405180910390a35050565b600073ffffffffffffffffffffffffffffffffffffffff82169050919050565b600061018f82610164565b9050919050565b61019f81610184565b82525050565b60006020820190506101ba6000830184610196565b92915050565b610ad6806101cf6000396000f3fe60806040526004361061007b5760003560e01c80638da5cb5b1161004e5780638da5cb5b14610102578063b86247d71461012d578063f2fde38b1461016b578063f83d08ba146101945761007b565b806304554443146100805780633ccfd60b146100ab5780634eb665af146100c2578063715018a6146100eb575b600080fd5b34801561008c57600080fd5b5061009561019e565b6040516100a29190610725565b60405180910390f35b3480156100b757600080fd5b506100c06101a4565b005b3480156100ce57600080fd5b506100e960048036038101906100e49190610771565b610321565b005b3480156100f757600080fd5b50610100610333565b005b34801561010e57600080fd5b50610117610347565b60405161012491906107df565b60405180910390f35b34801561013957600080fd5b50610154600480360381019061014f9190610826565b610370565b604051610162929190610853565b60405180910390f35b34801561017757600080fd5b50610192600480360381019061018d9190610826565b610394565b005b61019c61041a565b005b60025481565b6000600160003373ffffffffffffffffffffffffffffffffffffffff1673ffffffffffffffffffffffffffffffffffffffff1681526020019081526020016000209050600081600001541161022e576040517f08c379a0000000000000000000000000000000000000000000000000000000008152600401610225906108d9565b60405180910390fd5b8060010154421015610275576040517f08c379a000000000000000000000000000000000000000000000000000000000815260040161026c90610945565b60405180910390fd5b600081600001549050600082600001819055503373ffffffffffffffffffffffffffffffffffffffff166108fc829081150290604051600060405180830381858888f193505050501580156102ce573d6000803e3d6000fd5b503373ffffffffffffffffffffffffffffffffffffffff167f7084f5476618d8e60b11ef0d7d3f06914655adb8793e28ff7f018d4c76d505d5826040516103159190610725565b60405180910390a25050565b6103296105b9565b8060028190555050565b61033b6105b9565b6103456000610640565b565b60008060009054906101000a900473ffffffffffffffffffffffffffffffffffffffff16905090565b60016020528060005260406000206000915090508060000154908060010154905082565b61039c6105b9565b600073ffffffffffffffffffffffffffffffffffffffff168173ffffffffffffffffffffffffffffffffffffffff160361040e5760006040517f1e4fbdf700000000000000000000000000000000000000000000000000000000815260040161040591906107df565b60405180910390fd5b61041781610640565b50565b6000341161045d576040517f08c379a0000000000000000000000000000000000000000000000000000000008152600401610454906109b1565b60405180910390fd5b6000600160003373ffffffffffffffffffffffffffffffffffffffff1673ffffffffffffffffffffffffffffffffffffffff16815260200190815260200160002060000154146104e2576040517f08c379a00000000000000000000000000000000000000000000000000000000081526004016104d990610a1d565b60405180910390fd5b6040518060400160405280348152602001600254426105019190610a6c565b815250600160003373ffffffffffffffffffffffffffffffffffffffff1673ffffffffffffffffffffffffffffffffffffffff16815260200190815260200160002060008201518160000155602082015181600101559050503373ffffffffffffffffffffffffffffffffffffffff167fd4665e3049283582ba6f9eba07a5b3e12dab49e02da99e8927a47af5d134bea534600254426105a19190610a6c565b6040516105af929190610853565b60405180910390a2565b6105c1610704565b73ffffffffffffffffffffffffffffffffffffffff166105df610347565b73ffffffffffffffffffffffffffffffffffffffff161461063e57610602610704565b6040517f118cdaa700000000000000000000000000000000000000000000000000000000815260040161063591906107df565b60405180910390fd5b565b60008060009054906101000a900473ffffffffffffffffffffffffffffffffffffffff169050816000806101000a81548173ffffffffffffffffffffffffffffffffffffffff021916908373ffffffffffffffffffffffffffffffffffffffff1602179055508173ffffffffffffffffffffffffffffffffffffffff168173ffffffffffffffffffffffffffffffffffffffff167f8be0079c531659141344cd1fd0a4f28419497f9722a3daafe3b4186f6b6457e060405160405180910390a35050565b600033905090565b6000819050919050565b61071f8161070c565b82525050565b600060208201905061073a6000830184610716565b92915050565b600080fd5b61074e8161070c565b811461075957600080fd5b50565b60008135905061076b81610745565b92915050565b60006020828403121561078757610786610740565b5b60006107958482850161075c565b91505092915050565b600073ffffffffffffffffffffffffffffffffffffffff82169050919050565b60006107c98261079e565b9050919050565b6107d9816107be565b82525050565b60006020820190506107f460008301846107d0565b92915050565b610803816107be565b811461080e57600080fd5b50565b600081359050610820816107fa565b92915050565b60006020828403121561083c5761083b610740565b5b600061084a84828501610811565b91505092915050565b60006040820190506108686000830185610716565b6108756020830184610716565b9392505050565b600082825260208201905092915050565b7f4e6f206c6f636b65642066756e64730000000000000000000000000000000000600082015250565b60006108c3600f8361087c565b91506108ce8261088d565b602082019050919050565b600060208201905081810360008301526108f2816108b6565b9050919050565b7f46756e647320617265206c6f636b656400000000000000000000000000000000600082015250565b600061092f60108361087c565b915061093a826108f9565b602082019050919050565b6000602082019050818103600083015261095e81610922565b9050919050565b7f4d757374206c6f636b20736f6d65204554480000000000000000000000000000600082015250565b600061099b60128361087c565b91506109a682610965565b602082019050919050565b600060208201905081810360008301526109ca8161098e565b9050919050565b7f416c7265616479206c6f636b6564000000000000000000000000000000000000600082015250565b6000610a07600e8361087c565b9150610a12826109d1565b602082019050919050565b60006020820190508181036000830152610a36816109fa565b9050919050565b7f4e487b7100000000000000000000000000000000000000000000000000000000600052601160045260246000fd5b6000610a778261070c565b9150610a828361070c565b9250828201905080821115610a9a57610a99610a3d565b5b9291505056fea2646970667358221220df4191ded6b9e7129b90f8356fe09c88d8c93b4abb0bff8b225c6662e6b91dea64736f6c634300081c0033",
  "linkReferences": {},
  "deployedLinkReferences": {}
}